{
  "_format": "hh3-artifact-1",
  "contractName": "CredentialRegistry",
  "sourceName": "contracts/CredentialRegistry.sol",
  "abi": [
    {
      "inputs": [],
      "stateMutability": "nonpayable",
      "type": "constructor"
    },
    {
      "anonymous": false,
      "inputs": [
        {
          "indexed": true,
          "internalType": "bytes32",
          "name": "credentialHash",
          "type": "bytes32"
        },
        {
          "indexed": true,
          "internalType": "address",
          "name": "recipient",
          "type": "address"
        },
        {
          "indexed": false,
          "internalType": "uint256",
          "name": "issuedAt",
          "type": "uint256"
        }
      ],
      "name": "CredentialIssued",
      "type": "event"
    },
    {
      "anonymous": false,
      "inputs": [
        {
          "indexed": true,
          "internalType": "bytes32",
          "name": "credentialHash",
          "type": "bytes32"
        },
        {
          "indexed": false,
          "internalType": "uint256",
          "name": "revokedAt",
          "type": "uint256"
        }
      ],
      "name": "CredentialRevoked",
      "type": "event"
    },
    {
      "inputs": [
        {
          "internalType": "address",
          "name": "_recipient",
          "type": "address"
        }
      ],
      "name": "getCredentialsForRecipient",
      "outputs": [
        {
          "internalType": "bytes32[]",
          "name": "",
          "type": "bytes32[]"
        }
      ],
      "stateMutability": "view",
      "type": "function"
    },
    {
      "inputs": [
        {
          "internalType": "bytes32",
          "name": "_credentialHash",
          "type": "bytes32"
        },
        {
          "internalType": "address",
          "name": "_recipient",
          "type": "address"
        }
      ],
      "name": "issueCredential",
      "outputs": [],
      "stateMutability": "nonpayable",
      "type": "function"
    },
    {
      "inputs": [],
      "name": "owner",
      "outputs": [
        {
          "internalType": "address",
          "name": "",
          "type": "address"
        }
      ],
      "stateMutability": "view",
      "type": "function"
    },
    {
      "inputs": [
        {
          "internalType": "bytes32",
          "name": "_credentialHash",
          "type": "bytes32"
        }
      ],
      "name": "revokeCredential",
      "outputs": [],
      "stateMutability": "nonpayable",
      "type": "function"
    },
    {
      "inputs": [
        {
          "internalType": "bytes32",
          "name": "_credentialHash",
          "type": "bytes32"
        }
      ],
      "name": "verifyCredential",
      "outputs": [
        {
          "internalType": "bool",
          "name": "exists",
          "type": "bool"
        },
        {
          "internalType": "address",
          "name": "issuer",
          "type": "address"
        },
        {
          "internalType": "address",
          "name": "recipient",
          "type": "address"
        },
        {
          "internalType": "uint256",
          "name": "issuedAt",
          "type": "uint256"
        },
        {
          "internalType": "bool",
          "name": "revoked",
          "type": "bool"
        }
      ],
      "stateMutability": "view",
      "type": "function"
    }
  ],
  "bytecode": "0x6080604052348015600e575f5ffd5b505f80546001600160a01b031916331790556106088061002d5f395ff3fe608060405234801561000f575f5ffd5b5060043610610055575f3560e01c806349a21051146100595780634dbf87cc1461006e57806388c20b6b146100be5780638da5cb5b146100de578063ca6eec7814610108575b5f5ffd5b61006c61006736600461052f565b61011b565b005b61008161007c366004610559565b6102da565b6040805195151586526001600160a01b039485166020870152929093169184019190915260608301521515608082015260a0015b60405180910390f35b6100d16100cc366004610570565b610381565b6040516100b59190610590565b5f546100f0906001600160a01b031681565b6040516001600160a01b0390911681526020016100b5565b61006c610116366004610559565b6103ea565b5f546001600160a01b031633146101665760405162461bcd60e51b815260206004820152600a60248201526937b7363c9037bbb732b960b11b60448201526064015b60405180910390fd5b816101a25760405162461bcd60e51b815260206004820152600c60248201526b0d2dcecc2d8d2c840d0c2e6d60a31b604482015260640161015d565b5f8281526001602052604090206003810154156101f25760405162461bcd60e51b815260206004820152600e60248201526d185b1c9958591e481a5cdcdd595960921b604482015260640161015d565b6040805160a0810182523381526001600160a01b03848116602080840182815284860189815242606087018181525f608089018181528d825260018088528b83209a518b546001600160a01b0319908116918c16919091178c5596518b820180549098169a169990991790955592516002808a01919091559051600389015592516004909701805460ff191697151597909717909655838152908252858120805494850181558152819020909201879055925191825285917f9b60e47e0de9dd13e3abeaa344b9315385a37fc57bf220201f068e387f16d8a4910160405180910390a3505050565b5f818152600160208181526040808420815160a08101835281546001600160a01b039081168252948201549094169284019290925260028201549083015260038101546060830181905260049091015460ff161515608083015282918291829182918203610357575f5f5f5f5f9550955095509550955050610378565b6001815f015182602001518360600151846080015195509550955095509550505b91939590929450565b6001600160a01b0381165f908152600260209081526040918290208054835181840281018401909452808452606093928301828280156103de57602002820191905f5260205f20905b8154815260200190600101908083116103ca575b50505050509050919050565b5f546001600160a01b031633146104305760405162461bcd60e51b815260206004820152600a60248201526937b7363c9037bbb732b960b11b604482015260640161015d565b5f818152600160205260408120600381015490910361047e5760405162461bcd60e51b815260206004820152600a6024820152691b9bdd081a5cdcdd595960b21b604482015260640161015d565b600481015460ff16156104c55760405162461bcd60e51b815260206004820152600f60248201526e185b1c9958591e481c995d9bdad959608a1b604482015260640161015d565b60048101805460ff1916600117905560405182907f75f6605999947515f809e45f97b7200bd8afc73fe9f88ea28987627467dbac84906105089042815260200190565b60405180910390a25050565b80356001600160a01b038116811461052a575f5ffd5b919050565b5f5f60408385031215610540575f5ffd5b8235915061055060208401610514565b90509250929050565b5f60208284031215610569575f5ffd5b5035919050565b5f60208284031215610580575f5ffd5b61058982610514565b9392505050565b602080825282518282018190525f918401906040840190835b818110156105c75783518352602093840193909201916001016105a9565b50909594505050505056fea2646970667358221220ba66e1aacd48bf654d946bcae60f0e0e00c3d583e775bb16e4eca868400a281f64736f6c634300081c0033",
  "linkReferences": {},
  "deployedLinkReferences": {},
  "immutableReferences": {},
  "inputSourceName": "project/contracts/CredentialRegistry.sol",
  "buildInfoId": "solc-0_8_28-6ceedcf43657c18d9cb99b24fb4620ddf07fc184"
}