{
  "_format": "hh3-artifact-1",
  "contractName": "CredentialRegistry",
  "sourceName": "contracts/CredentialRegistry.sol",
  "abi": [
    {
      "inputs": [],
      "stateMutability": "nonpayable",
      "type": "constructor"
    },
    {
      "anonymous": false,
      "inputs": [
        {
          "indexed": true,
          "internalType": "bytes32",
          "name": "credentialHash",
          "type": "bytes32"
        },
        {
          "indexed": true,
          "internalType": "address",
          "name": "recipient",
          "type": "address"
        },
        {
          "indexed": false,
          "internalType": "uint256",
          "name": "issuedAt",
          "type": "uint256"
        }
      ],
      "name": "CredentialIssued",
      "type": "event"
    },
    {
      "anonymous": false,
      "inputs": [
        {
          "indexed": true,
          "internalType": "bytes32",
          "name": "credentialHash",
          "type": "bytes32"
        },
        {
          "indexed": false,
          "internalType": "uint256",
          "name": "revokedAt",
          "type": "uint256"
        }
      ],
      "name": "CredentialRevoked",
      "type": "event"
    },
    {
      "inputs": [
        {
          "internalType": "address",
          "name": "_recipient",
          "type": "address"
        }
      ],
      "name": "getCredentialsForRecipient",
      "outputs": [
        {
          "internalType": "bytes32[]",
          "name": "",
          "type": "bytes32[]"
        }
      ],
      "stateMutability": "view",
      "type": "function"
    },
    {
      "inputs": [
        {
          "internalType": "bytes32",
          "name": "_credentialHash",
          "type": "bytes32"
        },
        {
          "internalType": "address",
          "name": "_recipient",
          "type": "address"
        }
      ],
      "name": "issueCredential",
      "outputs": [],
      "stateMutability": "nonpayable",
      "type": "function"
    },
    {
      "inputs": [],
      "name": "owner",
      "outputs": [
        {
          "internalType": "address",
          "name": "",
          "type": "address"
        }
      ],
      "stateMutability": "view",
      "type": "function"
    },
    {
      "inputs": [
        {
          "internalType": "bytes32",
          "name": "_credentialHash",
          "type": "bytes32"
        }
      ],
      "name": "revokeCredential",
      "outputs": [],
      "stateMutability": "nonpayable",
      "type": "function"
    },
    {
      "inputs": [
        {
          "internalType": "bytes32",
          "name": "_credentialHash",
          "type": "bytes32"
        }
      ],
      "name": "verifyCredential",
      "outputs": [
        {
          "internalType": "bool",
          "name": "exists",
          "type": "bool"
        },
        {
          "internalType": "address",
          "name": "issuer",
          "type": "address"
        },
        {
          "internalType": "address",
          "name": "recipient",
          "type": "address"
        },
        {
          "internalType": "uint256",
          "name": "issuedAt",
          "type": "uint256"
        },
        {
          "internalType": "bool",
          "name": "revoked",
          "type": "bool"
        }
      ],
      "stateMutability": "view",
      "type": "function"
    }
  ],
  "bytecode": "0x6080604052348015600e575f5ffd5b50335f5f6101000a81548173ffffffffffffffffffffffffffffffffffffffff021916908373ffffffffffffffffffffffffffffffffffffffff160217905550610cb58061005b5f395ff3fe608060405234801561000f575f5ffd5b5060043610610055575f3560e01c806349a21051146100595780634dbf87cc1461007557806388c20b6b146100a95780638da5cb5b146100d9578063ca6eec78146100f7575b5f5ffd5b610073600480360381019061006e9190610838565b610113565b005b61008f600480360381019061008a9190610876565b61041a565b6040516100a09594939291906108e2565b60405180910390f35b6100c360048036038101906100be9190610933565b61055f565b6040516100d09190610a15565b60405180910390f35b6100e16105f2565b6040516100ee9190610a35565b60405180910390f35b610111600480360381019061010c9190610876565b610616565b005b5f5f9054906101000a900473ffffffffffffffffffffffffffffffffffffffff1673ffffffffffffffffffffffffffffffffffffffff163373ffffffffffffffffffffffffffffffffffffffff16146101a1576040517f08c379a000000000000000000000000000000000000000000000000000000000815260040161019890610aa8565b60405180910390fd5b5f5f1b82036101e5576040517f08c379a00000000000000000000000000000000000000000000000000000000081526004016101dc90610b10565b60405180910390fd5b5f60015f8481526020019081526020015f2090505f81600301541461023f576040517f08c379a000000000000000000000000000000000000000000000000000000000815260040161023690610b78565b60405180910390fd5b6040518060a001604052803373ffffffffffffffffffffffffffffffffffffffff1681526020018373ffffffffffffffffffffffffffffffffffffffff1681526020018481526020014281526020015f151581525060015f8581526020019081526020015f205f820151815f015f6101000a81548173ffffffffffffffffffffffffffffffffffffffff021916908373ffffffffffffffffffffffffffffffffffffffff1602179055506020820151816001015f6101000a81548173ffffffffffffffffffffffffffffffffffffffff021916908373ffffffffffffffffffffffffffffffffffffffff16021790555060408201518160020155606082015181600301556080820151816004015f6101000a81548160ff02191690831515021790555090505060025f8373ffffffffffffffffffffffffffffffffffffffff1673ffffffffffffffffffffffffffffffffffffffff1681526020019081526020015f2083908060018154018082558091505060019003905f5260205f20015f90919091909150558173ffffffffffffffffffffffffffffffffffffffff16837f9b60e47e0de9dd13e3abeaa344b9315385a37fc57bf220201f068e387f16d8a44260405161040d9190610b96565b60405180910390a3505050565b5f5f5f5f5f5f60015f8881526020019081526020015f206040518060a00160405290815f82015f9054906101000a900473ffffffffffffffffffffffffffffffffffffffff1673ffffffffffffffffffffffffffffffffffffffff1673ffffffffffffffffffffffffffffffffffffffff168152602001600182015f9054906101000a900473ffffffffffffffffffffffffffffffffffffffff1673ffffffffffffffffffffffffffffffffffffffff1673ffffffffffffffffffffffffffffffffffffffff1681526020016002820154815260200160038201548152602001600482015f9054906101000a900460ff16151515158152505090505f816060015103610535575f5f5f5f5f9550955095509550955050610556565b6001815f015182602001518360600151846080015195509550955095509550505b91939590929450565b606060025f8373ffffffffffffffffffffffffffffffffffffffff1673ffffffffffffffffffffffffffffffffffffffff1681526020019081526020015f208054806020026020016040519081016040528092919081815260200182805480156105e657602002820191905f5260205f20905b8154815260200190600101908083116105d2575b50505050509050919050565b5f5f9054906101000a900473ffffffffffffffffffffffffffffffffffffffff1681565b5f5f9054906101000a900473ffffffffffffffffffffffffffffffffffffffff1673ffffffffffffffffffffffffffffffffffffffff163373ffffffffffffffffffffffffffffffffffffffff16146106a4576040517f08c379a000000000000000000000000000000000000000000000000000000000815260040161069b90610aa8565b60405180910390fd5b5f60015f8381526020019081526020015f2090505f8160030154036106fe576040517f08c379a00000000000000000000000000000000000000000000000000000000081526004016106f590610bf9565b60405180910390fd5b806004015f9054906101000a900460ff161561074f576040517f08c379a000000000000000000000000000000000000000000000000000000000815260040161074690610c61565b60405180910390fd5b6001816004015f6101000a81548160ff021916908315150217905550817f75f6605999947515f809e45f97b7200bd8afc73fe9f88ea28987627467dbac844260405161079b9190610b96565b60405180910390a25050565b5f5ffd5b5f819050919050565b6107bd816107ab565b81146107c7575f5ffd5b50565b5f813590506107d8816107b4565b92915050565b5f73ffffffffffffffffffffffffffffffffffffffff82169050919050565b5f610807826107de565b9050919050565b610817816107fd565b8114610821575f5ffd5b50565b5f813590506108328161080e565b92915050565b5f5f6040838503121561084e5761084d6107a7565b5b5f61085b858286016107ca565b925050602061086c85828601610824565b9150509250929050565b5f6020828403121561088b5761088a6107a7565b5b5f610898848285016107ca565b91505092915050565b5f8115159050919050565b6108b5816108a1565b82525050565b6108c4816107fd565b82525050565b5f819050919050565b6108dc816108ca565b82525050565b5f60a0820190506108f55f8301886108ac565b61090260208301876108bb565b61090f60408301866108bb565b61091c60608301856108d3565b61092960808301846108ac565b9695505050505050565b5f60208284031215610948576109476107a7565b5b5f61095584828501610824565b91505092915050565b5f81519050919050565b5f82825260208201905092915050565b5f819050602082019050919050565b610990816107ab565b82525050565b5f6109a18383610987565b60208301905092915050565b5f602082019050919050565b5f6109c38261095e565b6109cd8185610968565b93506109d883610978565b805f5b83811015610a085781516109ef8882610996565b97506109fa836109ad565b9250506001810190506109db565b5085935050505092915050565b5f6020820190508181035f830152610a2d81846109b9565b905092915050565b5f602082019050610a485f8301846108bb565b92915050565b5f82825260208201905092915050565b7f6f6e6c79206f776e6572000000000000000000000000000000000000000000005f82015250565b5f610a92600a83610a4e565b9150610a9d82610a5e565b602082019050919050565b5f6020820190508181035f830152610abf81610a86565b9050919050565b7f696e76616c6964206861736800000000000000000000000000000000000000005f82015250565b5f610afa600c83610a4e565b9150610b0582610ac6565b602082019050919050565b5f6020820190508181035f830152610b2781610aee565b9050919050565b7f616c7265616479206973737565640000000000000000000000000000000000005f82015250565b5f610b62600e83610a4e565b9150610b6d82610b2e565b602082019050919050565b5f6020820190508181035f830152610b8f81610b56565b9050919050565b5f602082019050610ba95f8301846108d3565b92915050565b7f6e6f7420697373756564000000000000000000000000000000000000000000005f82015250565b5f610be3600a83610a4e565b9150610bee82610baf565b602082019050919050565b5f6020820190508181035f830152610c1081610bd7565b9050919050565b7f616c7265616479207265766f6b656400000000000000000000000000000000005f82015250565b5f610c4b600f83610a4e565b9150610c5682610c17565b602082019050919050565b5f6020820190508181035f830152610c7881610c3f565b905091905056fea2646970667358221220ace397b6fd86156cfebd5f976c874058866d0ea4764a28ad33d5fee612cecb9664736f6c634300081c0033",
  "linkReferences": {},
  "deployedLinkReferences": {},
  "immutableReferences": {},
  "inputSourceName": "project/contracts/CredentialRegistry.sol",
  "buildInfoId": "solc-0_8_28-f20c5c3a0bdcaf9646b229887c6582a48854ebb3"
}